:03000000020026D5
:0C002600787FE4F6D8FD75812002006DA3
:02002000C1001D
:10000300758780759850538EBF538EFE53890F7535
:0D0013008920758BFF758DFFC2ABD28E2248
:0900D0008F992099030080FA22A7
:0F00B2001200033000FDAF081200D0C20080F42E
:030023000200C117
:0F00C100C2AF309807859908C298D200D2AF32EB
:100032000200B2E493A3F8E493A34003F68001F232
:1000420008DFF48029E493A3F85407240CC8C333CF
:10005200C4540F4420C8834004F456800146F6DF9E
:10006200E4800B0102040810204080900020E47E0E
:10007200019360BCA3FF543F30E509541FFEE49393
:10008200A360010ECF54C025E060A840B8E493A35A
:10009200FAE493A3F8E493A3C8C582C8CAC583CA85
:1000A200F0A3C8C582C8CAC583CADFE9DEE780BE3D
:0100220000DD
:00000001FF
