:0300000002027980
:0C027900787FE4F6D8FD7581200202C0F9
:10030500C9CCBCD2D0A1C6B1002A2A2A2A2A0031DA
:10031500BAC5BFDAB4FC00B1B8D7A23A00B2BBD2B5
:10032500AAC0B100CAB3C6B7C3FBB3C63A00C2E997
:10033500C0B1B6B9B8AF00B7DD3A003200D7DCBC02
:10034500DB3A00323000B2CDBAD0B7D13A3200C56F
:10035500E4CBCDB7D13A3200D6A7B8B6BDF0B6EEEC
:100365003A00323400CDE2C2F4B5D8D6B73A00B976
:10037500ABD4A2CEE5BAC5C2A500C0F9A4B0999286
:0403850082F88090EA
:02048700C100B2
:040423007F027E00D6
:10042700D3EF9400EE6480948040147D7D7C00EDD2
:0F0437001D70011CED4C70F7EF1F70E41E80E18B
:010446002293
:1001D100AB07AA067C037DE812012D747F2FF582FF
:1001E10074033EF583E493F580C2A0120423D2A0E8
:1001F1007C037DE8AF03AE0212012D7E007F64CF48
:10020100CDCFCECCCE12012D747F2FF58274033E5B
:10021100F583E493F580C2A1120423D2A17C037D6E
:10022100E8AF03AE0212012D7E007F64CFCDCFCEA9
:10023100CCCE12012D7E007F0ACFCDCFCECCCE12F7
:10024100012D747F2FF58274033EF583E493F580CD
:10025100C2A2120423D2A2AE02AF037C007D0A1215
:10026100012D747F2DF58274033CF583E493F580B1
:08027100C2A3120423D2A32250
:050479007F0A12041BC4
:08047E007FB47E49DEFEDFFCC5
:010486002253
:1003FD007F0A12041B12047E7F0A12041B7F1B123C
:0E040D00041B7F6212041BE4FF12041B7F0419
:08041B008F993099FDC299226E
:10044700758780759850538EBF538EFE53890F75ED
:0D0457008920758BFF758DFFC2ABD28E2200
:0603C5007BFF7A03790EB4
:0603CB008B0A8A0B890C6D
:1003D100E4F50DAB0AAA0BA90C120464C3E50D9F49
:1003E100E49E5017AB0AAA0BA90C850D82758300F8
:0B03F100120100FF12041B050D80D854
:0103FC0022DE
:100003007F1B12041B7F4012041B12047E7F0A1203
:10001300041B7F1B12041B7F6212041BE4FF1204E8
:100023001B7F0A12041B7BFF7A0379051203CB1291
:1000330004791203C51204797BFF7A03791412033E
:10004300CB1204797BFF7A03791C1203CB1203FDD5
:100053007BFF7A0379221203CB1204797BFF7A03A5
:1000630079291203CB1203FD7BFF7A037933120341
:10007300CB1204797BFF7A03793C1203CB1203FD85
:100083007BFF7A0379401203CB1204797BFF7A0357
:1000930079421203CB1203FD7BFF7A0379481203E3
:1000A300CB1204791203C51204797BFF7A03794BCF
:1000B3001203CB1204797BFF7A0379541203CB1218
:1000C30004791203C51204797BFF7A03795D120365
:1000D300CB1203FD7BFF7A0379671203CB120479FA
:1000E3007BFF7A03796A1203CB1203FD7BFF7A034A
:0D00F30079741203CB7F0A12041B02047EF5
:10038900E4F508F50912044720B5287F057E001217
:10039900042720B51E0509E50970020508D3940F45
:1003A900E508648094A74005E4F508F509120003FF
:0C03B90030B5FDAF09AE081201D180CCB8
:10028500020389E493A3F8E493A34003F68001F203
:1002950008DFF48029E493A3F85407240CC8C3337A
:1002A500C4540F4420C8834004F456800146F6DF49
:1002B500E4800B0102040810204080900487E47E4E
:1002C500019360BCA3FF543F30E509541FFEE4933E
:1002D500A360010ECF54C025E060A840B8E493A305
:1002E500FAE493A3F8E493A3C8C582C8CAC583CA30
:1002F500F0A3C8C582C8CAC583CADFE9DEE780BEE8
:010489000072
:10010000BB010CE58229F582E5833AF583E02250B4
:1001100006E92582F8E622BBFE06E92582F8E222FE
:0D012000E58229F582E5833AF583E4932218
:10012D00C2D5EC30E709B2D5E4C39DFDE49CFCEEED
:10013D0030E715B2D5E4C39FFFE49EFE12017CC3E8
:10014D00E49DFDE49CFC800312017C30D507C3E4E3
:06015D009FFFE49EFE225C
:10046400E4FFFE120163600C0FEF70010E09E970E6
:05047400F20A80EF22F6
:10016300BB010689828A83E0225002E722BBFE029A
:09017300E32289828A83E49322CD
:10017C00BC000BBE0029EF8DF084FFADF022E4CC67
:10018C00F875F008EF2FFFEE33FEEC33FCEE9DEC30
:10019C00984005FCEE9DFE0FD5F0E9E4CEFD22ED76
:1001AC00F8F5F0EE8420D21CFEADF075F008EF2FC0
:1001BC00FFED33FD4007985006D5F0F222C398FDB1
:0501CC000FD5F0EA224E
:00000001FF
