:030000000201E119
:0C01E100787FE4F6D8FD75810B02014127
:0A01ED00C0F9A4B0999282F8809046
:0401BD007F027E003F
:1001C100D3EF9400EE6480948040147D7D7C00ED3B
:0F01D1001D70011CED4C70F7EF1F70E41E80E1F4
:0101E00022FC
:10000E00AB07AA067C037DE81200B674ED2FF582CD
:10001E0074013EF583E493F580C2A01201BDD2A017
:10002E007C037DE8AF03AE021200B67E007F64CF84
:10003E00CDCFCECCCE1200B674ED2FF58274013E2C
:10004E00F583E493F580C2A11201BDD2A17C037D9C
:10005E00E8AF03AE021200B67E007F64CFCDCFCEE6
:10006E00CCCE1200B67E007F0ACFCDCFCECCCE1234
:10007E0000B674ED2FF58274013EF583E493F5809E
:10008E00C2A21201BDD2A2AE02AF037C007D0A1243
:10009E0000B674ED2DF58274013CF583E493F58082
:0800AE00C2A31201BDD2A3227E
:10014100E4F50AF50B20B33C7F057E001201C120C6
:10015100B32FD2A5758901758CFF758AA07508FF2B
:100161007509A0D2AFD2A9D28C050BE50B7002059F
:100171000AD3940FE50A648094A74005E4F50AF5D3
:0D0181000B30B3FDAF0BAE0A12000E80B8BC
:03000B0002018E61
:10018E00C0E0B2A5E509600280081508E50864FC28
:10019E00600A150985088C85098A80107508FF7517
:0F01AE0009A085088C85098AD2A5C28CD0E032C1
:1000B600C2D5EC30E709B2D5E4C39DFDE49CFCEE65
:1000C60030E715B2D5E4C39FFFE49EFE1200ECC3F1
:1000D600E49DFDE49CFC80031200EC30D507C3E4EC
:0600E6009FFFE49EFE22D4
:1000EC00BC000BBE0029EF8DF084FFADF022E4CCF8
:1000FC00F875F008EF2FFFEE33FEEC33FCEE9DECC1
:10010C00984005FCEE9DFE0FD5F0E9E4CEFD22ED06
:10011C00F8F5F0EE8420D21CFEADF075F008EF2F50
:10012C00FFED33FD4007985006D5F0F222C398FD41
:05013C000FD5F0EA22DE
:00000001FF
